:1000000045C0000053C0000051C000004FC00000B8
:100010004DC000004BC0000049C0000047C00000B8
:1000200045C0000043C0000041C000003FC00000C8
:100030003DC000003BC000003AC0000037C00000D7
:1000400035C0000033C0000031C000002FC00000E8
:100050002DC000002BC0000029C0000027C00000F8
:1000600025C0000023C0000021C000001FC0000008
:100070001DC000001BC0000019C0000017C0000018
:1000800015C0000013C0000011C0000011241FBEE5
:10009000CFEFD0E1DEBFCDBF21E0A0E0B1E001C0F5
:1000A0001D92A430B207E1F73ED0A0C0A9CF1F92A5
:1000B0000F920FB60F9211248F939F9380E09AEFC7
:1000C0009DBD8CBD9F918F910F900FBE0F901F9083
:1000D000189520E030E0281739074CF4E3ECF9E0FC
:1000E0003197F1F700C000002F5F3F4FF4CF089524
:1000F0008BB380618BBB08958BB38F7E8BBB0895D0
:10010000CF93DF93EC01F4DFCE01DD230CF40196F5
:10011000EC01D595C795CE01DCDFEEDFCE01D9DF4E
:10012000DF91CF9108951092030110920201109275
:1001300001011092000184B3806284BB84B38F7E7E
:1001400084BB8FEF8ABB17BA80E09AEF9DBD8CBD50
:100150001FBC85E08EBD84E087BF789485B3806244
:1001600085BB25E82A95F1F7000085B38F7D85BB17
:1001700085E88A95F1F700009C9B1CC080910201E4
:1001800090910301019690930301809302018132C3
:100190009E4480F48091000190910101019690931A
:1001A00001018093000189EF90E00197F1F700C011
:1001B0000000E2CF809102019091030180329E44C1
:1001C00080F42091000130910101C901880F991F2D
:1001D000220F331F220F331F220F331F820F931F53
:1001E0008FDF1092010110920001B8CFF894FFCF79
:00000001FF
