:1000000045C0000053C0000051C000004FC00000B8
:100010004DC000004BC0000049C0000047C00000B8
:1000200045C0000043C0000041C000003FC00000C8
:100030003DC000003BC000003AC0000037C00000D7
:1000400035C0000033C0000031C000002FC00000E8
:100050002DC000002BC0000029C0000027C00000F8
:1000600025C0000023C0000021C000001FC0000008
:100070001DC0000036C0000019C0000017C00000FD
:1000800015C0000013C0000011C0000011241FBEE5
:10009000CFEFD0E1DEBFCDBF21E0A0E0B1E001C0F5
:1000A0001D92A530B207E1F76DD0A5C1A9CF1F926F
:1000B0000F920FB60F9211248F939F93909100018E
:1000C00081E0911180E08093000180910001829590
:1000D000807F8BBB9F918F910F900FBE0F901F90D1
:1000E00018951F920F920FB60F9211240BB60F9214
:1000F0002F933F934F935F936F937F938F939F9330
:10010000AF93BF93EF93FF9398B384E0892788BBA5
:100110008091010190910201FBD0FF91EF91BF917D
:10012000AF919F918F917F916F915F914F913F918F
:100130002F910F900BBE0F900FBE0F901F90189530
:100140001FBC84E08EBD87B7846087BF089510927E
:100150008B0084E080938A00EDE7F0E0808184608A
:1001600080830895CF93DF93EC0188B3806188BBCF
:10017000CE0169D088B38F7E88BBCE0164D0DF9179
:10018000CF9108950BD110920401109203011092A7
:1001900002011092010184B3806284BB84B384BBEA
:1001A0008AB380618ABB87B3806187BB87B3846071
:1001B00087BBC6DFCCDF789485B3806285BB24E63D
:1001C0002A95F1F785B38F7D85BB84E68A95F1F793
:1001D0009C9B1DC080910301909104010196909316
:1001E00004018093030120910101309102012F5FEE
:1001F0003F4F309302012093010181329E4438F435
:1002000089EF90E00197F1F700C00000E1CF809105
:1002100003019091040180329E4480F420910101F9
:1002200030910201C901880F991F220F331F220F3D
:10023000331F220F331F820F931F94DF109202018E
:1002400010920101B9CF20E030E0281739074CF4B3
:10025000E3ECF9E03197F1F700C000002F5F3F4F6A
:10026000F4CF08958FEF87BB87B3877F87BB88B3B1
:10027000816088BB82E58DB908958FB9779BFECFE9
:10028000089598B321E030E002C0220F331F8A9511
:10029000E2F72095292328BB089598B321E030E0A8
:1002A00002C0220F331F8A95E2F7292B28BB08953D
:1002B00080E0E7DF89E0E1DF8FEFDFDF80E0EDDF87
:1002C00080E0DFDF8AE0D9DF8FE0D7DF80E0E5DFA5
:1002D00080E0D7DF8BE0D1DF83E0CFDF80E0DDDFC0
:1002E00080E0CFDF8CE0C9DF81E0C7DF80E0D5CFE1
:1002F0000895CF93DF93D82FC62F80E0C2DF8D2FD4
:10030000BCDF8C2FBADF80E0C8DFDF91CF9108958A
:100310001F93CF93DF939C012A513C4F253F3A42D4
:1003200048F5992334F491958195910921E030E0C5
:1003300002C020E030E068EE73E036D0462F64E67D
:1003400070E032D0162F6AE070E02ED0D62FC82F82
:10035000232B21F06AE084E0CCDF03C0642F84E02B
:10036000C8DF612F83E0C5DF6D2F82E0C2DF6C2F15
:1003700081E0BFDFDF91CF911F910895CF93C1E05E
:10038000C53050F480E07DDF8C2F77DF80E075DFB3
:1003900080E083DFCF5FF4CFCF91089581E087BB0A
:1003A00061DF86DFEBCF089597FB072E16F40094EC
:1003B00006D077FD08D00BD007FC05D03EF4909511
:1003C00081959F4F0895709561957F4F0895AA1B61
:1003D000BB1B51E107C0AA1FBB1FA617B70710F030
:1003E000A61BB70B881F991F5A95A9F78095909562
:0A03F000BC01CD010895F894FFCF81
:00000001FF
