S014000045696E646F706472616368742E737265633B
S113000045C0000053C0000051C000004FC00000B4
S11300104DC000004BC0000049C0000047C00000B4
S113002045C0000043C0000041C000003FC00000C4
S11300303DC000003BC0000049C0000037C00000C4
S113004035C0000033C0000031C000002FC00000E4
S11300502DC000002BC0000029C0000027C00000F4
S113006025C0000023C0000021C000001FC0000004
S11300701DC0000045C0000019C0000017C00000EA
S113008015C0000013C0000011C0000011241FBEE1
S1130090CFEFD0E1DEBFCDBF21E0A0E0B1E001C0F1
S11300A01D92A530B207E1F75FD0BEC0A9CF20E012
S11300B030E0281739074CF4E3ECF9E03197F1F715
S11300C000C000002F5F3F4FF4CF08951F920F929E
S11300D00FB60F9211248F939F939091000181E0AA
S11300E0911180E080930001809100018295807FCE
S11300F08BBB9F918F910F900FBE0F901F901895FF
S11301001F920F920FB60F9211248F939F9398B35F
S113011084E0892788BB9F918F910F900FBE0F9029
S11301201F9018951FBC84E08EBD87B7846087BF7D
S1130130089510928B0084E080938A00EDE7F0E04C
S11301408081846080830895CF93DF93EC0188B32A
S1130150806188BBCE01ABDF88B38F7E88BBCE01C4
S1130160A6DFDF91CF91089510920401109203014C
S1130170109202011092010184B3806284BB84B3A3
S113018084BB8AB380618ABB87B3806187BB87B332
S1130190846087BBC7DFCDDF789485B3806285BB7D
S11301A024E62A95F1F785B38F7D85BB84E68A958D
S11301B0F1F79C9B1DC0809103019091040101966D
S11301C09093040180930301209101013091020175
S11301D02F5F3F4F309302012093010181329E44EF
S11301E038F489EF90E00197F1F700C00000E1CF07
S11301F0809103019091040180329E4480F4209107
S1130200010130910201C901880F991F220F331F88
S1130210220F331F220F331F820F931F95DF10927B
S10F0220020110920101B9CFF894FFCF45
S9030000FC
